:020000040800F2
:1000000098CF00202D02000867460008BD0B0008AD
:10001000654600088507000811560008000000002A
:100020000000000000000000000000005B4D000820
:100030008707000800000000794800081D4E0008EE
:10004000470200084702000847020008470200086C
:10005000470200084702000847020008470200085C
:10006000470200084702000847020008470200084C
:10007000470200084702000847020008470200083C
:10008000470200084702000847020008470200082C
:10009000470200084702000847020008F907000865
:1000A000470200084702000847020008470200080C
:1000B00047020008714E0008494F00084702000837
:1000C00047020008470200084702000847020008EC
:1000D0004702000821540008470200088554000820
:1000E0009907000847020008470200084702000875
:1000F00047020008470200084702000847020008BC
:1001000047020008470200084702000847020008AB
:100110004702000847020008854F00084702000810
:10012000470200084702000847020008470200088B
:1001300000F002F800F06BF80AA090E8000C82448E
:100140008344AAF10107DA4501D100F060F8AFF26B
:10015000090EBAE80F0013F0010F18BFFB1A43F0A5
:1001600001031847E0920000009300000A444FF09A
:10017000000C10F8013B13F0070408BF10F8014B06
:100180001D1108BF10F8015B641E05D010F8016B4B
:10019000641E01F8016BF9D113F0080F1EBF10F8AF
:1001A000014BAD1C0C1B09D16D1E58BF01F801CBD2
:1001B000FAD505E014F8016B01F8016B6D1EF9D555
:1001C0009142D6D37047000000230024002500266A
:1001D000103A28BF78C1FBD8520728BF30C148BFAA
:1001E0000B607047642900F09D80752900F09A80AB
:1001F000782900F0D380632900F05982732900F038
:100200005E82002070471FB51FBD10B510BD00F005
:1002100089FA1146FFF7F7FF05F022FC00F0A7FA74
:1002200003B4FFF7F2FF03BC05F0E3FA0948804787
:1002300009480047FEE7FEE7FEE7FEE7FEE7FEE7C8
:10024000FEE7FEE7FEE7FEE704480549034A054BE3
:1002500070470000214E00083101000898CB0020B3
:1002600098CF002098CB0020704700000FB40449BD
:1002700010B503AA029800F027FA10BC5DF814FB31
:100280006C00002070B5044685690068C10601D580
:10029000302600E02026C00707D070BDD4E9012138
:1002A00030469047206A401C20626D1EF6D570BD16
:1002B00070B5044685690078C00707D170BDD4E9E0
:1002C000012120209047206A401C20626D1EF6D537
:1002D00070BD70B50C460546012A05D02878800609
:1002E00000D5EA69002302E0012305E05B1C93428C
:1002F00002D2E05C0028F9D1A869E618C01AA8610A
:10030000286A184428622846FFF7BCFF04E0D5E9B4
:10031000012114F8010B9047B442F8D32846FFF7A7
:10032000C7FF70BD2DE9F04106460024106875290D
:10033000314616A510D0AFF30080002802DA404203
:1003400013A507E031688A0701D512A502E0490725
:1003500004D511A5012401E0AFF3008000210A2299
:1003600006F1240709E0B0FBF2FCB0FBF2F302FB5C
:100370001C00303078541846491C0028F3D123461D
:100380002A463046BDE8F04100F02EB900000000DA
:100390002D0000002B0000002000000070B5044676
:1003A0000D4621461068AFF300802188090502D56B
:1003B0000F4A7A4402E00E4A7A440E32002104F1D8
:1003C000240305E000F00F060009965D5E54491C09
:1003D0000028F7D120780023000704D5702D02D023
:1003E00009B1022311322046BDE8704000F0FCB88C
:1003F0004C8F00002DE9F05F894604464FF0000A5B
:10040000DFF874B1FB44C0F820A02046E1688847BB
:10041000002874D0252806D0D4E901219047206A0D
:10042000401C2062F1E700265F462046E1688847CD
:100430002028054607DB312D05D2781910F8200C4D
:1004400008B10643F1E7B00701D526F00406C4F869
:100450001CA00027C4F818A02A2D09D0284605F0B2
:10046000C1F938B304EB8708303DC8F8185019E0DB
:1004700059F8041B204604EB87029161E168884724
:10048000012F054618D1E069002820DA26F0200661
:100490001DE0D8F8180000EB800005EB4000303874
:1004A000C8F818002046E1688847054605F09AF923
:1004B0000028EED1012F0AD02E2D08D12046E16868
:1004C00088477F1C0546022F46F02006C4DBA06942
:1004D000002803DA404246F00106A061F00701D08F
:1004E00026F010066C2D0BD0682D09D04C2D39D07C
:1004F0006A2D35D0742D35D07A2D33D016E038E002
:10050000E1682F4620468847B842054609D16C2F3E
:1005100026D04FF48060E1680643204688470546B0
:1005200004E06C2F1AD04FF4807006430DB3A5F190
:100530004100192802D8203546F400664A4629466B
:10054000204626604E46FFF74DFE80B101280BD0B5
:10055000F61D26F0070000F1080956E74020E4E701
:100560008020D8E70020D6E706F104094DE72846A9
:1005700052E7206ABDE8F09F228F000010B5203AB4
:10058000C0F00B80B1E81850203AA0E81850B1E84C
:100590001850A0E81850BFF4F5AF5FEA027C24BF02
:1005A000B1E81850A0E8185044BF18C918C0BDE8F9
:1005B00010405FEA827C24BF51F8043B40F8043BC2
:1005C00008BF7047D20728BF31F8023B48BF11F877
:1005D000012B28BF20F8023B48BF00F8012B7047D1
:1005E00070477047704770472DE9F0470D469946B0
:1005F0009246044600F124080168880604D5E069A3
:1006000021F01001216000E00120A84201DD471B1C
:1006100000E00027A1697A1902EB0900081AA0611D
:100620002078C00602D42046FFF72CFE002608E002
:10063000D4E901211AF806009047206A401C761C74
:1006400020624E45F4DB2078C0060AD52046FFF72D
:1006500019FE06E0D4E9012130209047206A401CB1
:100660002062381EA7F10107F4DC07E0D4E901217C
:1006700018F805009047206A401C2062281EA5F14A
:100680000105F3DC2046FFF713FE2078000602D5B3
:100690000220BDE8F0870120FBE710B5436913B1E4
:1006A000AFF3008001E0FFF714FE012010BD1278C7
:1006B00000F124010A7000224A700122EDE711685E
:1006C0004FF0FF32E9E70000074B70B50D467B4461
:1006D00000F011F80446284600F020F810B14FF061
:1006E000FF3070BD204670BD2353000001694A1CD5
:1006F00002610878704700B58FB0CDE90131002163
:10070000059105497944CDE9031011466846FFF784
:1007100071FE0FB000BD0000E5FFFFFF007B00F0A1
:1007200080007047754600F029F8AE46050069461E
:10073000534620F00700854618B020B5FFF784FD2A
:10074000BDE820404FF000064FF000074FF00008D2
:100750004FF0000B21F00701AC46ACE8C009ACE853
:10076000C009ACE8C009ACE8C0098D467047044632
:10077000AFF300802046FFF753FD000000487047AC
:1007800034CB0020FEE7704701B5009801E0401E21
:1007900000900028FBD108BD054910B50120487024
:1007A00000F014F9BDE810404FF4F04000F046B8F6
:1007B000140000203EB50821002000F063F94FF43A
:1007C0008070002400908DF8044008208DF805000A
:1007D00001258DF80650684600F04CF817208DF87A
:1007E00008008DF809408DF80A408DF80B5002A8DA
:1007F00003F03AFF3EBD000010B54FF48074204670
:1008000000F028F801280DD1094A0020C2F898010B
:100810000121C2F898110748C0F88C1106480178E8
:10082000491C01702046BDE8104000F00DB80000E2
:1008300000802242008021422C00002001490860F3
:10084000704700001404014001490860704700002F
:1008500014040140064A014600201268044B0A4075
:1008600014331B680B4202D0002A00D001207047CD
:100870000004014030B51A4A8379016853B3136804
:100880008B431360111D0B680468A3430B6001794F
:1008900011440B68046823430B60114B083319683B
:1008A0000468A14319601C1D21680568A9432160E3
:1008B0004179102905D011440A68006802430A6092
:1008C00030BD19680268114319602168006801434E
:1008D000216030BD0079104402688A43026030BD57
:1008E000000401408000A0F1C0400029016802D04E
:1008F00041F0010101E0024A11400160704700002F
:10090000FEFF0F0010B5D0E901121143D0E9032317
:100910001A4311434269114382691143C269114369
:10092000026A1143426A1143826A1143C26A114347
:10093000026B114302689200A2F1C042116081680B
:10094000082907D101688900A1F1C0410A6842F075
:1009500040020A60416BD1E9002342EA03128B682E
:100960008C891B0243EA04431A430B8A42EA03526E
:100970000B7D896942EA03620A4301688900A1F19B
:10098000C0414A60C16AB1F5804F08D000686FF07D
:1009900070418000A0F1C040C0F8041110BD816B0F
:1009A000D1E9002342EA03128B680C8A1B0243EA56
:1009B00004531A430B7D896942EA036200680A43C3
:1009C0008000A0F1C040C0F8042110BD2DE9F04125
:1009D0001C48407800281CD000F05CF9C2B21A48CC
:1009E0001A491B4D1B4C1C4E4FF08243112A10D24A
:1009F000DFE802F00F090C1115181C1F220F0F0F52
:100A00000F0F0F0F24000360144806E0144A026021
:100A10000D60BDE8F081046012480860F9E70360EA
:100A20001148FAE7114A02601148F6E704601148DC
:100A3000F3E705601048F0E7104A00E0104A026052
:100A40000E60E6E7140000203C000020400000207B
:100A5000000040410000114300001743000088419E
:100A600000009642000030410000A8420000984279
:100A70000000A6420000A0420000184300009C4273
:100A80000000144310B58A0721F003040649120F31
:100A900021440F238C6893409C438C608B6890406A
:100AA00003438B6010BD000000000140F0B5CC781E
:100AB000002204F00F03E40601D58C7823430C7860
:100AC0004FF00F0C14F0FF0F4FF0010E1BD0056814
:100AD0000E880EFA02F42640A64210D196000CFAB7
:100AE00006F725EA070703FA06F5CE783D43282ED8
:100AF00002D0482E02D002E0446100E00461521CA2
:100B0000082AE5D305600A88FF2A1CD94468002218
:100B100002F108060EFA06F50E882E40AE420ED1FE
:100B200096000CFA06F7BC4303FA06F7CE783C436E
:100B3000282E00D14561CE78482E00D10561521C87
:100B4000082AE5D34460F0BDF0B5144C002801DA62
:100B5000E36900E06368450D2E0185B2C0F30157DB
:100B6000B540C0F30342032F05D0C6020AD50326C1
:100B70009640B34307E023F07062636823F070632C
:100B8000636002E0AB4343F0706201B12A43002886
:100B900001DAE261F0BD6260F0BD000000000140DA
:100BA000806880B270470246002092680A4200D0F6
:100BB000012070474161704701617047FEE73EB513
:100BC00000F042F80121084603F070FE4FF4006087
:100BD000FFF73AFE0B210520FFF754FF4FF480503A
:100BE000FFF732FE0C210520FFF74CFF4FF40050B9
:100BF000FFF72AFE0D210520FFF744FF4FF4804048
:100C0000FFF722FE0E210520FFF73CFF4FF4F040D6
:100C1000009000208DF8040008208DF805000124C4
:100C20008DF806406846FFF725FE28208DF808005D
:100C300002208DF8090003208DF80A008DF80B4082
:100C400002A803F011FD3EBD38B50121802003F05C
:100C50002DFE4FF4F064ADF8004010208DF8030035
:100C600003200B4D8DF8020069462846FFF71EFF52
:100C700021462846FFF7A0FF2101ADF800102821EA
:100C80008DF8031069462846FFF710FF38BD0000B5
:100C9000001C01402DE9F05F5A4E00252C463046DD
:100CA000FFF77EFFDFF8609100F4F0404FF0010A9B
:100CB000A9F1020B4FF6FF78B0F5006F09D0B0F53F
:100CC000805F34D0B0F5005F54D0B0F5804F26D1AE
:100CD00073E04FF4F0613046FFF76CFF8020A040D6
:100CE00081B23046FFF768FF4FF40067394630465F
:100CF000FFF759FF50B14046FFF746FD39463046F1
:100D0000FFF751FF10B119F8245073E0641CE4B2EE
:100D1000042CE3D34FF4F0613046FFF74DFF4FF45E
:100D2000F0413046FFF746FF2846BDE8F09F4FF4FC
:100D3000F0613046FFF73EFF8020A04081B2304690
:100D4000FFF73AFF4FF4805739463046FFF72BFF45
:100D500058B14046FFF718FD39463046FFF723FFEC
:100D600018B109EB8400457844E0641CE4B2042C1B
:100D7000E2D3CFE74FF4F0613046FFF71BFF80204E
:100D8000A04081B23046FFF717FF4FF400573946B5
:100D90003046FFF708FF58B14046FFF7F5FC3946EB
:100DA0003046FFF700FF18B109EB8400857821E099
:100DB000641CE4B2042CE2D3ACE74FF4F06130469B
:100DC000FFF7F8FE4FF480478020A04081B2304604
:100DD000FFF7F2FE39463046FFF7E5FE68B14046C0
:100DE000FFF7D2FC39463046FFF7DDFE28B109EBAC
:100DF0008400C5788BF800A08CE7641CE4B2042C56
:100E0000E2D387E7001C0140160000202DE9F043E3
:100E1000174F0646002438887D884543B888A0F5DA
:100E2000D041043902D1B879012807D00021084601
:100E300003F0A8F903F0DCFB0E4815E00020B871C0
:100E40004FF02A09A7F80A904FF02B08A7F80C805A
:100E5000014603F097F90120B871A7F80A80A7F8B6
:100E60000C90E7E70680641CAC42FBD3BDE8F0833E
:100E7000CC0100200008006C2DE9F04F49492A23DD
:100E80002B24898845F210594FF4487541F6631AAE
:100E90004FF0220B4FF0200EA02749F2413C45F2C3
:100EA00010364FF4F07278B13E484FF001086145BA
:100EB00080F806800780478001D0B1423ED12C25C2
:100EC0000581438184815DE036484FF0000861452B
:100ED00080F806800780478005D0A1F5D047043F01
:100EE00001D0B1420ED12C2505814381A1F5D0431B
:100EF0008481043B01D0B1424ED14FF4A0710180F6
:100F0000428049E0494509D14FF4305101814FF405
:100F1000285141814FF42C51818105E0514506D182
:100F20002C210181448183810280458034E0A0F836
:100F300008B0A0F80AE0212181812DE0A1F5D04779
:100F4000043F0BD049450ED14FF4305303814FF489
:100F5000285343814FF42C5383810AE02C250581CB
:100F6000448183810EE0514506D12C2707814381BE
:100F700084810580428005E0A0F808B021234381E8
:100F8000A0F80CE0A1F5D043043B01D0B14203D15D
:100F900002804FF4A0714180BDE8F04F002003F0C3
:100FA0001DB80000CC0100202DE9F04FDFF80C81C6
:100FB000934642460B46B8F804500C0ADFF800A1ED
:100FC0009189060A5289A5F513470AF10209413FA2
:100FD00018D0A5F5A647103F14D0B7F500771CD060
:100FE0004746A5F5C85CBE793F883F1A7F1EBCF115
:100FF000630C27D0A5F5D04CBCF1040C3AD0012EDF
:101000004AD04AE0AAF800204A46A9F80060C0B2D7
:10101000A9F80000AAF800103AE0AAF80020A9F800
:101020000060521CAAF80020C0B2A9F80000AAF87B
:101030000010A9F80040491CAAF80010D8B2A9F87D
:10104000000033E006B9B8B2AAF80020050A4A4603
:10105000A9F80050C7B2A9F80070A9F80050C0B2B2
:10106000A9F80000AAF80010A9F80040D8B2A9F821
:1010700000000DE0012E00D1B8B2AAF80020050A48
:101080004A46A9F80050C0B2A9F80000AAF800101A
:101090001480D8B2108009E0B8B20146104603F0BF
:1010A000B1FAB8F80C00194603F0ACFAB8F8081019
:1010B000AAF80010A9F800B0BDE8F08FCC0100201C
:1010C000FE07006C2DE9F8431F4D1F468046AB8894
:1010D000089EA3F5D040043802D1A879012807D092
:1010E000A2EB0800401C85B20C46DFF8609028E0B7
:1010F0002B880846991A0024AC713A462A24A3EB9F
:1011000008036C812B27491E5B1EAF8189B29BB2FD
:101110000096FFF7D7FF0120A8716F81AC81BDE871
:10112000F8832146404603F02DF803F061FA0020D1
:10113000494602E00E80401C80B2A842FAD3641CEB
:10114000A4B2BC42EDD9EAE7CC0100200008006C53
:101150002DE9F04F01210E029FB0304603F08EFBC7
:1011600001214FF4B47003F0A1FB0127ADF83C70EE
:101170004FF010088DF83F8003248DF83E400FA9F2
:10118000FE48FFF793FC4CF23370ADF83C00182595
:101190008DF83F508DF83E400FA9F948FFF786FCC7
:1011A0004FF68070ADF83C008DF83F508DF83E4012
:1011B0000FA9F448FFF77AFC41F20100ADF83C00BA
:1011C0008DF83F508DF83E400FA9EF48FFF76EFCB9
:1011D00000200F21CDE918011A901B901C901D9042
:1011E0001090CDE91104CDE9160714900621159051
:1011F000CDE90010CDE90208139004903101CDE94A
:1012000008010690059007908900CDE90A010C902D
:1012100017A80D9010A80E906846FFF773FB0121E8
:101220000620FFF75FFB322004F0B0FB002002F045
:10123000ABFED64DD64C49F24139A88046F6040A99
:1012400045F2103B45F210574FF6FF78FF2804D3C4
:10125000404502D0B0F5134F70D1D320208002F06A
:1012600089FEA88002F086FEA88002F083FE08EACC
:1012700000204146A88002F07DFEAA881043A88085
:1012800048455BD0BF20208002F074FEA88002F0A9
:1012900071FEA88002F06EFEA88002F06BFE01EAEB
:1012A0000020A88002F066FEAA881043A88050455E
:1012B00044D0D420208002F05DFEA88002F05AFEC7
:1012C000A88002F057FE01EA0020A88002F052FE3A
:1012D000AA881043A880584530D04FF45A40208047
:1012E00002F048FEA8804FF45B40208002F042FEEE
:1012F00001EA0020A8804FF45C40208002F03AFE12
:10130000AA881043A880B0F5004F7DD0B84215D010
:10131000A120208002F02EFEA88002F02BFE01EA20
:101320000020A88002F026FEA9880843A0F5AE415F
:10133000A880613902D141F66310A880A98895A0E0
:10134000FEF794FFA888924DAD1C48457ED1CF2072
:10135000208000202880C120288030202880ED2097
:10136000208064202880032028801220288081206B
:101370002880E820208085202880102028807A205E
:101380002880CB202080392028802C202880002015
:1013900028803420288002202880F72020802020E8
:1013A0002880EA202080002028802880C0202080FB
:1013B0001B202880C120208001202880C52020807B
:1013C000302028802880C7202080B7202880362021
:1013D0002080482028803A20208055202880B12075
:1013E0002080002028801A202880B62020800A2013
:1013F0002880A2202880F22020800020288026201B
:1014000020800120288000E051E0E02020800F2093
:1014100028802A20288028202880082028800E2044
:1014200028800820288054202880A9202880432054
:1014300028800A2028800F202880002028802880EB
:1014400028802880E1202080002000E031E02880F2
:101450001520288017202880072028801120288028
:10146000062028802B202880562028803C20288099
:1014700005202880102028800F2028803F202880E9
:1014800028800F2028802B20208000202880288082
:10149000012028803F2028802A20208000202880CA
:1014A00028802880EF2028801120208084E0AF80D1
:1014B00044E7504576D111202080142004F066FACC
:1014C000D020208007202880422028801D202880CE
:1014D000D1202080002028801A2028800920288000
:1014E000D22020800120288022202880C020208037
:1014F000102028803B20288000202880022028807F
:1015000011202880C520208003202880C82020802A
:101510000020288025202880212028800520288060
:10152000002028800A202880652028802520288007
:1015300077202880502028800F20288000202880B5
:10154000F820208001202880FE2020800020288094
:10155000022028802020208036202080082028801B
:101560003A202080552028802B20208000202880B1
:101570002880012028803F20288014E0000C0140B2
:10158000001401400018014000200140CC0100205F
:10159000FE07006C204C43442049443A25780D0A4C
:1015A000000000000EE02A202080002028802880F3
:1015B00001202880DF202880782004F0E7F9292006
:1015C00001F02DBC58457DD1ED20208001202880E0
:1015D000FE202880EE202080DE2028802120288008
:1015E000F120208001202880DF202080102028800A
:1015F000C42020808F202880C620208000202880C2
:10160000E220288028802880BF202080AA202880EF
:10161000B02020800D202880002028800D202880E8
:101620000020288011202880002028801920288070
:101630000020288021202880002028802D2028803C
:10164000002028803D202880002028805D202880E0
:10165000002028805D20288000202880B120208064
:1016600080202880002028808B202880002028804F
:101670009620288000202880B2202080002028800A
:101680002880022028800020288003202880002035
:101690002880B3202080002028802880288028806F
:1016A00028802880288028802880288028802880FA
:1016B00028802880288028802880288028802880EA
:1016C000288000E0FEE3288028802880B420208045
:1016D0008B202880002028809620288000202880C9
:1016E000A120288000202880B5202080022028808A
:1016F00000202880032028800020288004202880C3
:1017000000202880B6202080002028802880B72054
:1017100020800020288028803F20288000202880EA
:101720005E202880002028806420288000202880D7
:101730008C20288000202880AC2028800020288051
:10174000DC2028800020288070202880002028802D
:101750009020288000202880EB20288000202880EE
:10176000DC20288000202880B820208000202880CD
:101770002880288028802880288028802880BA20F7
:101780002080242028800020288028802880C120D4
:1017900020802020288000202880542028800020BD
:1017A0002880FF20288000202880C22020800A2056
:1017B0002880002028800420288000202880C32042
:1017C00020803C202880002028803A20288000208B
:1017D0002880392028800020288037202880002079
:1017E00028803C2028800020288036202880002067
:1017F000288032202880002028802F202880002068
:1018000028802C2028800020288029202880002063
:10181000288026202880002028802420288000205E
:101820002880242028800020288023202880002051
:1018300028803C2028800020288036202880002016
:10184000288032202880002028802F202880002017
:1018500028802C2028800020288029202880002013
:10186000288026202880002028802420288000200E
:101870002880242028800020288023202880002001
:101880002880C42020806220288000202880052015
:101890002880002028808420288000202880F020B4
:1018A0002880002028801820288000202880A4205C
:1018B00028800020288018202880002028805020A0
:1018C0002880002028800C202880002028801720D5
:1018D0002880002028809520288000202880F32060
:1018E000288000202880E620288000202880C5202D
:1018F000208032202880002028804420288000205A
:1019000028806520288000202880762028800020DC
:1019100028808820288000202880C6202080202041
:10192000288000202880172028800020288001207F
:10193000288000202880C720208000202880288040
:1019400028802880C82020800020288028802880A7
:101950002880C92020800020288028802880288096
:101960002880288028802880288028802880288037
:101970002880288028802880E02020801620288049
:10198000002028801C2028800020288021202880FA
:1019900000202880362028800020288046202880AB
:1019A0000020288052202880002028806420288061
:1019B000002028807A202880002028808B20288002
:1019C000002028809920288000202880A8202880B6
:1019D00000202880B920288000202880C42028806A
:1019E00000202880CA20288000202880D22028803B
:1019F00000202880D920288000202880E02028800E
:101A000000202880F320288000202880E1202080EA
:101A100016202880002028801C2028800020288074
:101A2000222028800020288036202880002028803E
:101A300045202880002028805220288000202880EF
:101A400064202880002028807A2028800020288098
:101A50008B20288000202880992028800020288042
:101A6000A820288000202880B920288000202880F5
:101A7000C420288000202880CA20288000202880B8
:101A8000D220288000202880D8202880002028808C
:101A9000E020288000202880F32028800020288053
:101AA000E220208005202880002028800B2028802C
:101AB000002028801B2028800020288034202880B7
:101AC0000020288044202880002028804F20288063
:101AD000002028806120288000202880792028800C
:101AE00000202880882028800020288097202880B7
:101AF00000202880A620288000202880B720288069
:101B000000202880C220288000202880C72028802C
:101B100000202880D120288000202880D6202880FE
:101B200000202880DD20288000202880F3202880C5
:101B300000202880E32020800520288000202880A5
:101B40000A202880002028801C202880002028804F
:101B500033202880002028804420288000202880EE
:101B600050202880002028806220288000202880A3
:101B70007820288000202880882028800020288045
:101B80009720288000202880A620288000202880F8
:101B9000B720288000202880C220288000202880AC
:101BA000C720288000202880D1202880002028807D
:101BB000D520288000202880DD2028800020288053
:101BC000F320288000202880E42020800120288025
:101BD00000202880012028800020288002202880E2
:101BE000002028802A202880002028803C2028806F
:101BF000002028804B202880002028805D2028801D
:101C000000202880742028800020288084202880BC
:101C1000002028809320288000202880A22028806F
:101C200000202880B320288000202880BE20288023
:101C300000202880C420288000202880CD202880F3
:101C400000202880D320288000202880DD202880C4
:101C500000202880F320288000202880E520208094
:101C600000202880288028802880022028800020CA
:101C7000288029202880002028803C2028800020DF
:101C800028804B202880002028805D20288000208C
:101C9000288074202880002028808420288000202C
:101CA00028809320288000202880A22028800020DF
:101CB0002880B320288000202880BE202880002093
:101CC0002880C420288000202880CD202880002063
:101CD0002880D320288000202880DC202880002035
:101CE0002880F320288000202880E62020801120F2
:101CF000288000202880342028800020288056203A
:101D000028800020288076202880002028807720C6
:101D100028800020288066202880002028808820B5
:101D20002880002028809920288000202880BB203F
:101D30002880002028809920288000202880662084
:101D400028800020288055202880002028805520C9
:101D500028800020288045202880002028804320DB
:101D60002880002028804420288000202880E72028
:101D700020803220288000202880552028800020C4
:101D80002880762028800020288066202880002057
:101D90002880672028800020288067202880002055
:101DA00028808720288000202880992028800020F3
:101DB0002880BB20288000202880992028800020AF
:101DC0002880772028800020288044202880002038
:101DD000288056202880002028802320288000206A
:101DE000288033202880002028804520288000205B
:101DF0002880E820208000202880288099202880C2
:101E000000202880872028800020288088202880A3
:101E100000202880772028800020288066202880C5
:101E2000002028808820288000202880AA20288060
:101E300000202880BB20288000202880992028802E
:101E400000202880662028800020288055202880B7
:101E500000202880552028800020288044202880C9
:101E600000202880442028800020288055202880B9
:101E700000202880E9202080AA20288000202880B7
:101E8000288028802080AA202880CF202080002041
:101E90002880288028802880288028802880288002
:101EA00028802880288028802880288028802880F2
:101EB0002880F020208000202880502028800020CA
:101EC000288000E02CE028802880F320208000205B
:101ED0002880F920208006202880102028802920B2
:101EE0002880002028803A2020805520288011203A
:101EF0002080642003F04AFD2920208035202080A6
:101F00000020288051202080FF202880532020801E
:101F10002C20288055202080822028802C20FCE343
:101F2000B8427DD14FF470435521184602F06AFB48
:101F30004FF20105AA21284602F064FB6E1C5221D3
:101F4000304602F05FFBAF1C0821384602F05AFB16
:101F50004FF204090121484602F054FB0D214FF4D1
:101F6000304002F04FFB0D214BF2010002F04AFB22
:101F70000D214BF2020002F045FB4FF4364A3421AA
:101F8000504602F03FFB34214BF2016002F03AFB75
:101F900034214BF2026002F035FB4FF4314B0D213E
:101FA000584602F02FFB0D214BF2011002F02AFBE4
:101FB0000D214BF2021002F025FB34214FF4374083
:101FC00002F020FB34214BF2017002F01BFB3421A4
:101FD0004BF2027002F016FB00214FF4324002F087
:101FE00011FB00214BF2012002F00CFB00214BF20F
:101FF000022002F007FB24214FF4384002F002FBDC
:1020000024214BF6010002F0FDFA24214BF60200D8
:1020100002F0F8FA01214FF43F4002F0F3FA00E039
:10202000FEE30F214FF4334002F0ECFA0F214BF2A4
:10203000013002F0E7FA0F214BF2023002F0E2FA2F
:1020400034214FF4394002F0DDFA34214BF601100F
:1020500002F0D8FA34214BF6021002F0D3FA08212C
:102060004FF4354002F0CEFA08214BF2015002F055
:10207000C9FA08214BF2025002F0C4FA03214FF4CE
:10208000424002F0BFFA24214FF43A4002F0BAFA7B
:1020900024214BF6012002F0B5FA24214BF6022050
:1020A00002F0B0FA00214FF43C4002F0ABFA782184
:1020B0004BF6014002F0A6FA00214BF6024002F076
:1020C000A1FA00214FF43D4002F09CFA78214BF632
:1020D000015002F097FA00214BF6025002F092FAFA
:1020E00000214FF43E4002F08DFA64214BF601606E
:1020F00002F088FA00214FF4514002F083FA3321B4
:102100004DF2011002F07EFA00214DF2021002F0B1
:1021100079FA34214DF2031002F074FA00214DF2E5
:10212000041002F06FFA3A214DF2051002F06AFA3B
:1021300000214DF2061002F065FA4A214DF2071017
:1021400002F060FA00214DF2081002F05BFA5C2107
:102150004DF2091002F056FA00214DF20A1002F079
:1021600051FA81214DF20B1002F04CFA00214DF290
:102170000C1002F047FAA6214DF20D1002F042FABF
:1021800000214DF20E1002F03DFAE5214DF20F1044
:1021900002F038FA01214DF2101002F033FA132147
:1021A0004DF2111002F02EFA01214DF2121002F040
:1021B00029FA54214DF2131002F024FA01214DF2B4
:1021C000141002F01FFA82214DF2151002F01AFAD3
:1021D00001214DF2161002F015FACA214DF2171026
:1021E00002F010FA02214DF2181002F00BFA002151
:1021F0004DF2191002F006FA02214DF21A1002F007
:1022000001FA01214DF21B1002F0FCF902214DF2FE
:102210001C1002F0F7F934214DF21D1002F0F2F912
:1022200002214DF21E1002F0EDF967214DF21F1050
:1022300002F0E8F902214DF2201002F0E3F98421C6
:102240004DF2211002F0DEF902214DF2221002F0CF
:10225000D9F9A4214DF2231002F0D4F902214DF254
:10226000241002F0CFF9B7214DF2251002F0CAF97F
:1022700002214DF2261002F0C5F9CF214DF22710B0
:1022800002F0C0F902214DF2281002F0BBF9DE2164
:102290004DF2291002F0B6F902214DF22A1002F097
:1022A000B1F9F2214DF22B1002F0ACF902214DF2FE
:1022B0002C1002F0A7F9FE214DF22D1002F0A2F928
:1022C00003214DF22E1002F09DF910214DF22F1036
:1022D00002F098F903214DF2301002F093F9332106
:1022E0004DF2311002F08EF903214DF2321002F05E
:1022F00089F96D214DF2331002F084F900214FF479
:10230000524002F07FF933214DF2012002F07AF9B8
:1023100000214DF2022002F075F934214DF2032024
:1023200002F070F900214DF2042002F06BF93A211D
:102330004DF2052002F066F900214DF2062002F070
:1023400061F94A214DF2072002F05CF900214DF2BB
:10235000082002F057F95C214DF2092002F052F9F1
:1023600000214DF20A2002F04DF981214DF20B209F
:1023700002F048F900214DF20C2002F043F9A621A9
:102380004DF20D2002F03EF900214DF20E2002F038
:1023900039F9E5214DF20F2002F034F901214DF217
:1023A000102002F02FF913214DF2112002F02AF92A
:1023B00001214DF2122002F025F954214DF2132093
:1023C00002F020F901214DF2142002F01BF98221C4
:1023D0004DF2152002F016F901214DF2162002F0FF
:1023E00011F9CA214DF2172002F00CF902214DF229
:1023F000182002F007F900214DF2192002F002F92D
:1024000002214DF21A2002F0FDF801214DF21B20AD
:1024100002F0F8F802214DF21C2002F0F3F834210A
:102420004DF21D2002F0EEF802214DF21E2002F0C6
:10243000E9F867214DF21F2002F0E4F802214DF285
:10244000202002F0DFF884214DF2212002F0DAF89A
:1024500002214DF2222002F0D5F8A4214DF22320D2
:1024600002F0D0F802214DF2242002F0CBF8B7217F
:102470004DF2252002F0C6F802214DF2262002F08E
:10248000C1F8CF214DF2272002F0BCF802214DF215
:10249000282002F0B7F8DE214DF2292002F0B2F830
:1024A00002214DF22A2002F0ADF8F2214DF22B204C
:1024B00002F0A8F802214DF22C2002F0A3F8FE2130
:1024C0004DF22D2002F09EF803214DF22E2002F055
:1024D00099F810214DF22F2002F094F803214DF2CB
:1024E000302002F08FF833214DF2312002F08AF8CB
:1024F00003214DF2322002F085F86D214DF2332098
:1025000002F080F800214FF4534002F07BF83321B1
:102510004DF2013002F076F800214DF2023002F067
:1025200071F834214DF2033002F06CF800214DF2C5
:10253000043002F067F83A214DF2053002F062F8FB
:1025400000214DF2063002F05DF84A214DF20730CD
:1025500002F058F800214DF2083002F053F85C21E7
:102560004DF2093002F04EF800214DF20A3002F02F
:1025700049F881214DF20B3002F044F800214DF270
:102580000C3002F03FF8A6214DF20D3002F03AF87F
:1025900000214DF20E3002F035F8E5214DF20F30FA
:1025A00002F030F801214DF2103002F02BF8132127
:1025B0004DF2113002F026F801214DF2123002F0F6
:1025C00021F854214DF2133002F01CF801214DF294
:1025D000143002F017F882214DF2153002F012F893
:1025E00001214DF2163002F00DF8CA214DF21730DC
:1025F00002F008F802214DF2183002F003F8002131
:102600004DF2193001F0FEFF02214DF21A3001F0B7
:10261000F9FF01214DF21B3001F0F4FF02214DF2D0
:102620001C3001F0EFFF34214DF21D3001F0EAFFC4
:1026300002214DF21E3001F0E5FF67214DF21F30FF
:1026400001F0E0FF02214DF2203001F0DBFF842198
:102650004DF2213001F0D6FF02214DF2223001F07F
:10266000D1FFA4214DF2233001F0CCFF02214DF225
:10267000243001F0C7FFB7214DF2253001F0C2FF31
:1026800002214DF2263001F0BDFFCF214DF227305F
:1026900001F0B8FF02214DF2283001F0B3FFDE2136
:1026A0004DF2293001F0AEFF02214DF22A3001F047
:1026B000A9FFF2214DF22B3001F0A4FF02214DF2CF
:1026C0002C3001F09FFFFE214DF22D3001F09AFFDA
:1026D00003214DF22E3001F095FF10214DF22F30E5
:1026E00001F090FF03214DF2303001F08BFF3321D8
:1026F0004DF2313001F086FF03214DF2323001F00E
:1027000081FF6D214DF2333001F07CFF00214FF449
:10271000544001F077FF332100E080E34DF20140A7
:1027200001F070FF00214DF2024001F06BFF3421F7
:102730004DF2034001F066FF00214DF2044001F02C
:1027400061FF3A214DF2054001F05CFF00214DF29E
:10275000064001F057FF4A214DF2074001F052FFB9
:1027600000214DF2084001F04DFF5C214DF209407F
:1027700001F048FF00214DF20A4001F043FF8121A2
:102780004DF20B4001F03EFF00214DF20C4001F0F4
:1027900039FFA6214DF20D4001F034FF00214DF22A
:1027A0000E4001F02FFFE5214DF20F4001F02AFF0E
:1027B00001214DF2104001F025FF13214DF211408F
:1027C00001F020FF01214DF2124001F01BFF5421C6
:1027D0004DF2134001F016FF01214DF2144001F0BB
:1027E00011FF82214DF2154001F00CFF01214DF245
:1027F000164001F007FFCA214DF2174001F002FF19
:1028000002214DF2184001F0FDFE00214DF2194069
:1028100001F0F8FE02214DF21A4001F0F3FE00E053
:10282000FFE201214DF21B4001F0ECFE02214DF2CE
:102830001C4001F0E7FE34214DF21D4001F0E2FEA4
:1028400002214DF21E4001F0DDFE67214DF21F40D6
:1028500001F0D8FE02214DF2204001F0D3FE842188
:102860004DF2214001F0CEFE02214DF2224001F056
:10287000C9FEA4214DF2234001F0C4FE02214DF215
:10288000244001F0BFFEB7214DF2254001F0BAFE11
:1028900002214DF2264001F0B5FECF214DF2274036
:1028A00001F0B0FE02214DF2284001F0ABFEDE2126
:1028B0004DF2294001F0A6FE02214DF22A4001F01E
:1028C000A1FEF2214DF22B4001F09CFE02214DF2BF
:1028D0002C4001F097FEFE214DF22D4001F092FEBA
:1028E00003214DF22E4001F08DFE10214DF22F40BC
:1028F00001F088FE03214DF2304001F083FE3321C8
:102900004DF2314001F07EFE03214DF2324001F0E4
:1029100079FE6D214DF2334001F074FE00214FF439
:10292000554001F06FFE33214DF2015001F06AFE77
:1029300000214DF2025001F065FE34214DF20350AA
:1029400001F060FE00214DF2045001F05BFE3A21DF
:102950004DF2055001F056FE00214DF2065001F0F7
:1029600051FE4A214DF2075001F04CFE00214DF27C
:10297000085001F047FE5C214DF2095001F042FE83
:1029800000214DF20A5001F03DFE81214DF20B5025
:1029900001F038FE00214DF20C5001F033FEA6216B
:1029A0004DF20D5001F02EFE00214DF20E5001F0BF
:1029B00029FEE5214DF20F5001F024FE01214DF2D8
:1029C000105001F01FFE13214DF2115001F01AFEBC
:1029D00001214DF2125001F015FE54214DF2135019
:1029E00001F010FE01214DF2145001F00BFE822186
:1029F0004DF2155001F006FE01214DF2165001F086
:102A000001FECA214DF2175001F0FCFD02214DF2EA
:102A1000185001F0F7FD00214DF2195001F0F2FDC0
:102A200002214DF21A5001F0EDFD01214DF21B5033
:102A300001F0E8FD02214DF21C5001F0E3FD3421CC
:102A40004DF21D5001F0DEFD02214DF21E5001F04D
:102A5000D9FD67214DF21F5001F0D4FD02214DF246
:102A6000205001F0CFFD84214DF2215001F0CAFD2C
:102A700002214DF2225001F0C5FDA4214DF2235058
:102A800001F0C0FD02214DF2245001F0BBFDB72141
:102A90004DF2255001F0B6FD02214DF2265001F015
:102AA000B1FDCF214DF2275001F0ACFD02214DF2D6
:102AB000285001F0A7FDDE214DF2295001F0A2FDC2
:102AC00002214DF22A5001F09DFDF2214DF22B50D2
:102AD00001F098FD02214DF22C5001F093FDFE21F2
:102AE0004DF22D5001F08EFD03214DF22E5001F0DC
:102AF00089FD10214DF22F5001F084FD03214DF28C
:102B0000305001F07FFD33214DF2315001F07AFD5C
:102B100003214DF2325001F075FD6D214DF233501D
:102B200001F070FD00214FF4564001F06BFD3321A0
:102B30004DF2016001F066FD00214DF2026001F0EE
:102B400061FD34214DF2036001F05CFD00214DF286
:102B5000046001F057FD3A214DF2056001F052FD8D
:102B600000214DF2066001F04DFD4A214DF2076053
:102B700001F048FD00214DF2086001F043FD5C21A9
:102B80004DF2096001F03EFD00214DF20A6001F0B6
:102B900039FD81214DF20B6001F034FD00214DF231
:102BA0000C6001F02FFDA6214DF20D6001F02AFD11
:102BB00000214DF20E6001F025FDE5214DF20F6080
:102BC00001F020FD01214DF2106001F01BFD1321E9
:102BD0004DF2116001F016FD01214DF2126001F07D
:102BE00011FD54214DF2136001F00CFD01214DF255
:102BF000146001F007FD82214DF2156001F002FD25
:102C000001214DF2166001F0FDFCCA214DF2176062
:102C100001F0F8FC02214DF2186001F0F3FC0021F4
:102C20004DF2196001F0EEFC02214DF21A6001F044
:102C3000E9FC01214DF21B6001F0E4FC02214DF2A0
:102C40001C6001F0DFFC34214DF21D6001F0DAFC64
:102C500002214DF21E6001F0D5FC67214DF21F608C
:102C600001F0D0FC02214DF2206001F0CBFC842168
:102C70004DF2216001F0C6FC02214DF2226001F00C
:102C8000C1FCA4214DF2236001F0BCFC02214DF2F5
:102C9000246001F0B7FCB7214DF2256001F0B2FCD1
:102CA00002214DF2266001F0ADFCCF214DF22760EC
:102CB00001F0A8FC02214DF2286001F0A3FCDE2106
:102CC0004DF2296001F09EFC02214DF22A6001F0D4
:102CD00099FCF2214DF22B6001F094FC02214DF29F
:102CE0002C6001F08FFCFE214DF22D6001F08AFC7A
:102CF00003214DF22E6001F085FC10214DF22F6072
:102D000001F080FC03214DF2306001F07BFC3321A7
:102D10004DF2316001F076FC03214DF2326001F09A
:102D200071FC6D214DF2336001F06CFC55211846A9
:102D300001F068FCAA21284601F064FC52213046CB
:102D400001F060FC0821384601F05CFC0021484697
:102D500001F058FCCC21584601F054FC00214BF204
:102D6000011001F04FFC0521504601F04BFC702191
:102D70004FF4374001F046FC70214BF2017001F036
:102D800041FC01214FF4384001F03CFC03214BF69B
:102D9000010001F037FC03214BF6020001F032FC88
:102DA00003214BF6030001F02DFC02214FF43C40BF
:102DB00001F028FC00214BF6014001F023FC00212A
:102DC0004BF6024001F01EFCD0214FF4494001F0C7
:102DD00019FC02214CF6011001F014FC50214CF6B4
:102DE000021001F00FFC50214CF6031001F00AFC18
:102DF00050214CF6041001F005FC00214FF4545012
:102E000001F000FC55214FF4685001F0FBFB4FF43A
:102E100088502080782002F0D3FD4FF42450208089
:102E2000FEE3A0F513414FF4E06940F23F1A4FF47E
:102E3000274B253924D040F20777C91E7DD04FF4A7
:102E4000887B08317AD0113979D0A0F5A8410839AA
:102E500076D0A0F5A8514FF4407B053971D0B1F57B
:102E600020416FD0B1F580516DD0A0F58A41313944
:102E70006AD0091F69D0A0F5C851633966D0CFE781
:102E800047F6F001E52001F0BDFB3146012001F0DD
:102E9000B9FB4946022001F0B5FB41F230010320A5
:102EA00001F0B0FB0021042001F0ACFB40F2022154
:102EB000082001F0A7FB0021092001F0A3FB00215D
:102EC0000A2001F09FFB00210C2001F09BFB002158
:102ED0000D2001F097FB00210F2001F093FB002152
:102EE000102001F08FFB0721112001F08BFB002146
:102EF000122001F087FB0021132001F083FB002149
:102F0000072001F07FFB41F29061102001F07AFB75
:102F100040F22721112001F075FB9D21122001F0C4
:102F200071FB4FF4C851132001F06CFB25212920BF
:102F300001F068FB0D212B2009E078E034E1D9E1B4
:102F4000AFE24AE3FEE3FEE3FEE3FEE3FEE301F06D
:102F500059FB0721302001F055FB40F203313120AD
:102F600001F050FB0321322001F04CFB40F206211E
:102F7000352001F047FB0821362001F043FB40F2E9
:102F80000641372001F03EFB4FF44171382001F03B
:102F900039FB0721392001F035FB40F202613C206A
:102FA00001F030FB08213D2001F02CFB00215020D6
:102FB00001F028FBEF21512001F024FB00215220D9
:102FC00001F020FB5146532001F01CFB59466020C4
:102FD00001F018FB0121612001F014FB00216A209F
:102FE00001F010FB0021802001F00CFB002181206A
:102FF00001F008FB0021822001F004FB0021832066
:1030000001F000FB0021842001F0FCFA0021852062
:1030100001F0F8FA1021902001F0F4FA4FF4C061A9
:10302000922001F0EFFA40F233110720FEE341F263
:103030008F01EC2001F0E6FA41F23421EF2001F09B
:10304000E1FA3146012001F0DDFA4946022001F0A3
:10305000D9FA41F23001032001F0D4FA0021042012
:1030600001F0D0FA40F20221082001F0CBFA002151
:10307000092001F0C7FA00210A2001F0C3FA01215A
:103080000C2001F0BFFA00210D2001F0BBFA002155
:103090000F2001F0B7FA0021102001F0B3FA072148
:1030A000112001F0AFFA0021122001F0ABFA00214B
:1030B000132001F0A7FA0121072001F0A3FA322022
:1030C00002F064FC41F29041102001F09BFA40F2C2
:1030D0002721112001F096FA322002F057FC8A21B4
:1030E000122001F08FFA322002F050FC4FF4D05140
:1030F000132001F087FA0621292001F083FA0D211F
:103100002B2001F07FFA322002F040FC0021202029
:1031100001F078FA0021212001F074FA322002F047
:1031200035FC0021302001F06DFA40F204613120BD
:1031300001F068FA40F20531322001F063FA002113
:10314000352001F05FFA40F60941362001F05AFAC5
:103150004FF40171372001F055FA40F20131382067
:1031600001F050FA3946392001F04CFA00213C2098
:1031700001F048FA40F60A213D2001F043FA3220DE
:1031800002F004FC0021502001F03CFAEF21512014
:1031900001F038FA0021522001F034FA5146532050
:1031A00001F030FA594651E10021084601F02AFAAF
:1031B0003146012001F026FA4946022001F022FAA8
:1031C00041F23001032001F01DFA0021042001F03A
:1031D00019FA40F20221082001F014FA0021092016
:1031E00001F010FA00210A2001F00CFA01210C2054
:1031F00001F008FA00210D2001F004FA00210F204F
:1032000001F000FA322002F0C1FB40F20111072068
:1032100001F0F8F9322002F0B9FB4FF4865110208A
:1032200001F0F0F90721112001F0ECF95B46594655
:10323000122001F0E7F94FF43061132001F0E2F9B8
:103240000021292001F0DEF944F210012B2001F0C9
:10325000D9F90021502001F0D5F9EF21512001F0DA
:10326000D1F90021522001F0CDF95146532001F04F
:10327000C9F94FF41C51602001F0C4F9012161200B
:1032800001F0C0F900216A2001F0BCF90021802082
:1032900001F0B8F90021812001F0B4F90021822069
:1032A00001F0B0F90021832001F0ACF90021842065
:1032B00001F0A8F90021852001F0A4F91021902047
:1032C00001F0A0F90021922001F09CF90121932046
:1032D00001F098F91946952001F094F90021972002
:1032E00001F090F90021982001F08CF940F273115F
:1032F000072084E341F21401E72001F083F931460D
:10330000012001F07FF94FF40071022001F07AF9F9
:1033100041F23801032001F075F940F20221082042
:1033200001F070F90021092001F06CF900210A2058
:1033300001F068F900210C2001F064F900210D2052
:1033400001F060F900210F2001F05CF9002110204C
:1033500001F058F90721112001F054F90021122041
:1033600001F050F90021132001F04CF9C82002F0BF
:103370000DFB41F29061102001F044F940F2272149
:10338000112001F03FF9322002F000FB0C21122045
:1033900001F038F9322002F0F9FA4FF400611320FD
:1033A00001F030F91121292001F02CF90B212B20FB
:1033B00001F028F9322002F0E9FA0021202001F082
:1033C00021F953465146212001F01CF900213020FB
:1033D00001F018F94FF483742146312001F012F9FD
:1033E0000021322001F00EF94FF40171352001F077
:1033F00009F941F20A61362001F004F93946372013
:1034000001F000F92146382001F0FCF83946392056
:1034100001F0F8F840F202413C2001F0F3F840F6E8
:103420000F413D2001F0EEF80021502001F0EAF8B4
:10343000EF21512001F0E6F80021522001F0E2F8DE
:103440001946532001F0DEF84FF41C51602001F0C2
:10345000D9F80121612001F0D5F800216A2001F09E
:10346000D1F80021802001F0CDF80021812001F069
:10347000C9F80021822001F0C5F80021832001F065
:10348000C1F80021842001F0BDF80021852001F061
:10349000B9F81021902001F0B5F84FF4C0619220E6
:1034A000FEE33146012001F0ADF84946022001F06B
:1034B000A9F841F23001032001F0A4F80021042012
:1034C00001F0A0F840F20721082001F09BF800214C
:1034D000092001F097F800210A2001F093F800215B
:1034E0000C2001F08FF800210D2001F08BF8002155
:1034F0000F2001F087F8142002F048FA41F2B06181
:10350000102001F07FF80121112001F07BF801214A
:10351000172001F077F84FF49C71122001F072F837
:103520004FF40061132001F06DF80921292001F00A
:1035300069F809212A2001F065F80021A42001F092
:1035400061F80021502001F05DF8EF21512001F0D9
:1035500059F80021522001F055F85146532001F04E
:1035600051F84FF41C51602001F04CF8012161200A
:1035700001F048F800216A2001F044F80021802081
:1035800001F040F80021812001F03CF80021822068
:1035900001F038F80021832001F034F80021842064
:1035A00001F030F80021852001F02CF81321902043
:1035B00001F028F80021922001F024F80321932043
:1035C00001F020F85946952001F01CF840F27311E3
:1035D000072001F017F8322010E10021072001F048
:1035E00011F8322002F0D2F94FF48E71122001F05E
:1035F00009F80121A42001F005F80F21082001F0AD
:1036000001F808210A2000F0FDFF08210D2000F03C
:10361000F9FF3946302000F0F5FF0721312000E0A6
:103620006EE300F0EFFF40F20361322000F0EAFFAA
:103630004C464946332000F0E5FF40F20221342099
:1036400000F0E0FF0221352000F0DCFF41F60F71B1
:10365000362000F0D7FF3946372000F0D3FF002195
:10366000382000F0CFFF0021392000F0CBFF394691
:103670003A2000F0C7FF00213B2000F0C3FF0721E4
:103680003C2000F0BFFF00213D2000F0BBFF3220B6
:1036900002F07CF90121072000F0B4FF012117207E
:1036A00000F0B0FF322002F071F94FF4BD5110204C
:1036B00000F0A8FF40F21721112000F0A3FF4FF403
:1036C0008F71122000F09EFF4FF47061132000F004
:1036D00099FF00212A2000F095FF0A21292000F0FF
:1036E00091FF4FF49F71122000F08CFF00215020B9
:1036F00000F088FFEF21512000F084FF00215220CC
:1037000000F080FF5146532000F07CFF4FF41C5125
:10371000602000F077FF0121612000F073FF00219D
:103720006A2000F06FFF0021802000F06BFF002175
:10373000812000F067FF0021822000F063FF00215C
:10374000832004E05DE05BE123E2DAE281E300F064
:1037500059FF0021842000F055FF0021852000F052
:1037600051FF1321902000F04DFF5946922000F0A8
:1037700049FF0521932000F045FF0021952000F02E
:1037800041FF0021972000F03DFF0021982000F02C
:1037900039FF3146012000F035FF2146022000F0BC
:1037A00031FF41F23801032000F02CFF00210420FA
:1037B00000F028FF00210C2000F024FF00210F2042
:1037C00000F020FF0021202000F01CFF002121201C
:1037D00000F018FF2121072000F014FF142002F050
:1037E000D5F86121072000F00DFF142002F0CEF87B
:1037F00040F27311072000F005FF142002F0C6F814
:10380000A1E30021084600F0FDFE0021084600F07B
:10381000F9FE0021084600F0F5FE0021084600F000
:10382000F1FE0121A42000F0EDFE00E0E3E0142011
:1038300002F0ACF84FF41C542146602000F0E2FE88
:1038400040F202252946082000F0DCFE4FF4057105
:10385000302000F0D7FE43F21571312000F0D2FE87
:1038600040F20461322000F0CDFE40F616613320B4
:1038700000F0C8FE42F21121342000F0C3FE4FF4E4
:10388000A851352000F0BEFE48F20751362000F066
:10389000B9FE41F20741372000F0B4FE41F2034186
:1038A000382000F0AFFE2021392000F0ABFE1A21B5
:1038B000902000F0A7FE0021102000F0A3FE0721B9
:1038C000112000F09FFE0021122000F09BFE00213D
:1038D000132000F097FE142002F058F84FF4E66130
:1038E000102000F08FFE40F23711112000F08AFE08
:1038F000142002F04BF84FF4DC71122000F082FE2D
:10390000142002F043F84FF47061132000F07AFEA7
:1039100080212A2000F076FE4821292000F072FE46
:10392000142002F033F83146012000F06BFE4946C6
:10393000022000F067FE41F23801032000F062FE31
:103940002946082000F05EFE00210A2000F05AFE01
:1039500000210C2000F056FE00210D2000F052FE48
:1039600030210E2000F04EFE0021502000F04AFED3
:10397000EF21512000F046FE0021522000F042FECF
:103980005146532000F03EFE2146602000F03AFEF2
:103990000121612000F036FE00216A2000F032FE95
:1039A0001121902000F02EFE4FF4C061922000F013
:1039B00029FE40F20241932000F024FE02219420CF
:1039C00000F020FE142001F0E1FF0121072000F0AB
:1039D00019FE142001F0DAFF6121072000F012FE29
:1039E00040F27311072000F00DFE0021202000F0AE
:1039F00009FE0021212000F005FE222100207DE1AA
:103A00000021084600F0FEFD0021084600F0FAFD06
:103A1000142001F0BBFF0021084600F0F3FD002157
:103A2000084600F0EFFD0021084600F0EBFD002104
:103A3000084600F0E7FD0121A42000F0E3FD14207A
:103A400001F0A4FF4FF41C51602000F0DBFD40F6B4
:103A50000601082000F0D6FD40F20373194630201D
:103A600000F0D0FD0121312000F0CCFD04213220F6
:103A700000F0C8FD4FF48171332000F0C3FD5C46B7
:103A80005946342000F0BEFD40F20311352000F00D
:103A9000B9FD1F21362000F0B5FD1946372000F092
:103AA000B1FD0121382000F0ADFD0421392000F0E6
:103AB000A9FD1521902000F0A5FD4FF48261102092
:103AC00000F0A0FD40F24721112000F09BFD4FF4D3
:103AD000DE71122000F096FD4FF46061132000F0BB
:103AE00091FD782001F052FF3146012000F08AFD5F
:103AF0004FF40071022000F085FD41F230010320F7
:103B000000F080FD08210A2000F07CFD00210C203F
:103B100000F078FD20210E2000F074FD00210F2020
:103B200000F070FD0021202000F06CFD002121201C
:103B300000F068FD3D212A2000F064FD142001F012
:103B400025FF2D21292000F05DFD0021502000F0EF
:103B500059FD4DF2EF01512000F054FD002152209B
:103B600000F050FD5146532000F04CFD0021612033
:103B700000F048FD00216A2000F044FD214692201B
:103B800000F040FD0521932000F03CFD3146FFF799
:103B9000AFBB0121002000F035FD0A2001F0F6FE48
:103BA00041F22861102000F02DFD0E21122000F0BE
:103BB00029FD40F63921132000F024FD0A2001F0F0
:103BC000E5FE4021112000F01DFD5021152000F0E0
:103BD00019FD0A2001F0DAFE1E21122000F012FD6C
:103BE0000A2001F0D3FE4FF4B151102000F00AFD7D
:103BF00042F63921132000F005FD0A2001F0C6FE2F
:103C00003146012000F0FEFC5946022000F0FAFC8B
:103C100041F23801032000F0F5FC40F202210820B7
:103C200000F0F0FC08210A2000F0ECFC002130201C
:103C300000F0E8FC40F20241312000F0E3FC4FF4D8
:103C40008371322000F0DEFC40F20351332000F09B
:103C5000D9FC4FF48271342000F0D4FC40F20131E1
:103C6000352000F0CFFC3946362000F0CBFC40F286
:103C70000531372000F0C6FC4FF40271382000F007
:103C8000C1FC40F60B71392000F0BCFC0221412040
:103C900000F0B8FC4FF41C51602000F0B3FC00E0D1
:103CA000D2E00121612000F0ADFC4FF404719020BE
:103CB00000F0A8FC4FF48571922000F0A3FC0421D1
:103CC000932000F09FFC3146A02000F09BFC0121D6
:103CD000072000F097FC2121072000F093FC23210E
:103CE000072000F08FFC3321072000F08BFC40F20E
:103CF0003311072000F086FC0021A02000F082FC98
:103D000021E13021152000F07DFC10219A2000F0E7
:103D100079FC2021112000F075FC43F2284110208D
:103D200000F070FC0221122000F06CFC41F238011E
:103D3000132000F067FC282001F028FE122108461D
:103D400000F060FC282001F021FE43F22041102009
:103D500000F058FC43F23801132000F053FC4620D9
:103D600001F014FE0021302000F04CFC40F2024132
:103D7000312000F047FC40F20731322000F042FCD5
:103D80004FF44171332000F03DFC0421342000F059
:103D900039FC40F20141352000F034FC3946362030
:103DA00000F030FC40F20531372000F02BFC4FF4DE
:103DB000C2631946382000F025FC1946392000F06E
:103DC00021FC3146012000F01DFC5946022000F084
:103DD00019FC41F23001032000F014FC40F6080108
:103DE000082000F00FFC08210A2000F00BFC4FF423
:103DF0001C51602000F006FC0121612000F002FC53
:103E00004FF49F71902000F0FDFB3146922000F0AE
:103E1000F9FB3146932000F0F5FB4FF44051A02010
:103E200000F0F0FB1021A32000F0ECFB01210720A3
:103E300000F0E8FB2121072000F0E4FB232107200C
:103E400000F0E0FB3321072000F0DCFB40F23311EF
:103E50009DE6E22020802320288002202880042064
:103E60002880642001F0ACFDE02020800120288023
:103E70000A2001F08BFDE0202080032028800C2008
:103E800001F084FD012020800A2001F07FFDE62062
:103E9000208003202880FF2028802880B0202080D8
:103EA00020202880002028800320288040F21F3016
:103EB00028800120288040F2DF1028800020288000
:103EC000B42020800420288040F21F402880002059
:103ED0002880D220288000202880288028802880E0
:103EE000B6202080022028804FF403702880002014
:103EF00028802220288009202880002028802880EF
:103F0000F02020800320288029202080D0202080BD
:103F100000202880BE20208005202880FE202880C8
:103F200001202880FF20288000202880B8202080C1
:103F30000F20288001202880BA202080012028809E
:103F4000642000F02DF80020FCF796FF04490120C2
:103F5000C1F880014046FCF759FF1FB0BDE8F08F63
:103F6000008021420346012000E05843491EC9B2A7
:103F7000FBD27047034808B50088ADF80000BDF8D3
:103F8000000008BD0008006C044910B50880052039
:103F900001F016FDBDE81040FFF7ECBFFE07006C16
:103FA0000C4A10B5BE211180941C0521218003F01C
:103FB000A1F84FF06632084B03F0B0F803F056F862
:103FC000208001202080FF20208000202080208071
:103FD00010BD0000FE07006C66660440F0B5674E39
:103FE00000233146B279898846F6040741F6631406
:103FF000012A01D02AB11DE0B9421BD0A14202D151
:1040000018E0A14216D1082814D2DFE800F0040617
:10401000080A0C0E101206200CE007200AE004200B
:1040200008E0052006E0012004E0002002E0032073
:1040300000E00220A1F5134C45F2103245F2105574
:10404000BCF1410C07D0B94205D0914203D0A9423E
:1040500001D0A14275D1082812D2DFE800F0110486
:1040600006080A0C0E1080230AE0402308E0C02353
:1040700006E0202304E0602302E0A02300E0E02328
:10408000A94202D14FF4585000E03620914205D0A9
:10409000A94203D0A14201D043F00803B94201D1A3
:1040A00043F00203194600F0ADFAB288A2420AD0EA
:1040B00098063088718802D5884202D303E088428E
:1040C00001D9318070802E48811CAA4272890280F9
:1040D00021D100230B80531C038000230B80931CF1
:1040E000038033885B1E1C0A0C80D21C0280DAB26B
:1040F0000A80B289028000230B80531C03800023B6
:104100000B80931C038073885B1E1C0A0C80D21CDE
:104110000280D8B212E000220A800A803288521E41
:10412000130A0B80D2B20A80B28902800020088074
:1041300008807088401E020A0A80C0B20880F0BD64
:10414000FFE7082812D2DFE800F0040608110A0C85
:104150000E1030230AE0102308E0202306E0382365
:1041600004E0282302E0182300E00823BDE8F04023
:10417000032043F4805100F045BA0000CC01002038
:10418000FE07006C2DE9F04F4E4F0B463A46BD88B6
:104190000C0ADFF834B191895289A5F513464FEA2C
:1041A000102C0BF1020A413E1DD0A5F5A646103E8B
:1041B00019D03E46BE4696F806903688A5F5D047FB
:1041C000A6EB0008A8F10108043F17D0A5F5C857D1
:1041D000633F28D0A5F5AA477646103F51D0B9F1E4
:1041E000010F63D064E0ABF800205246AAF800C08B
:1041F000C0B2AAF80000ABF800100FE0B9F1010F4F
:1042000001D11FFA88F0ABF80020050A5246AAF83F
:104210000050C0B2AAF80000ABF800101480D8B269
:104220001080BDE8F08FB9F1000F1BD0ABF8002073
:104230005246AAF800C0C0B2AAF80000761E300AA2
:10424000AAF80000F0B21080ABF8001011461480FC
:10425000D8B21080BEF80200401E020A0A80C0B226
:104260000880DEE71FFA88F0ABF8002000265246EF
:10427000AAF80060AAF80060060AAAF80060C0B2B6
:10428000E1E7ABF80020AAF800C0521CABF8002010
:10429000C0B2AAF80000ABF80010AAF80040491C10
:1042A000ABF80010D8B2AAF80000BAE71FFA88F0FD
:1042B0000146104600F0A6F9B089BDE8F04F194656
:1042C00000F0A0B9CC010020FE07006C2DE9FC4FE6
:1042D000044691464844401E86B2C818401E83B228
:1042E000009004EB0900401EC0F3072EDFF850C118
:1042F00000980D46C0F3072B6046BCF804204FEA37
:10430000112881894089A2F513474FEA142A413FB9
:1043100010D0A2F5A647103F0CD0A2F5D047043F1D
:1043200008D09CF8067041F6631C0197012F13D149
:10433000624511D1434F3880B81CA0F800A0E2B20A
:104340000280A0F800E0F2B202803980A0F800807C
:10435000E9B2018059461CE0394F62453F881DD1C2
:10436000A7EB0902121B374C009B92B29BB2208034
:10437000160AA01C0680D6B206804A44521E160AAF
:104380000680D2B202802180A0F80080E9B20180CC
:10439000190A0180D9B20180BDE8FC8FA2F5A04CBA
:1043A000BCF5A26C1FD0019801283FD0B046214631
:1043B0002E4650204FF0510A4FF05209532700F07B
:1043C00021F94146504600F01DF93146484600F0BB
:1043D00019F91946384600F015F929462046BDE876
:1043E000FC4FFFF7CFBE174A1080971CA7F800A01C
:1043F00000F1010CA2F800C0E4B23C80841C1480DF
:10440000A7F800E0C01C1080F0B238801180A7F837
:104410000080481C1080E8B23880881C1080A7F803
:1044200000B0C91C1180D8B23880B5E7B81B401E57
:1044300086B2381B9846401E294683B2B9E7000071
:10444000CC010020FE07006C2DE9F84F82461F4684
:104450000C468B46580700D0012000EBD7007908A6
:104460004843203AC0B202F0FF090026009041E024
:104470000C2F10D0102F12D0182F3ED1204909EB4D
:10448000C90001EB80004FF00008855D28060AD5C1
:104490001C4802880BE009EB49001B49F1E71B4966
:1044A00001EB0910EFE70A9828B91648428821461F
:1044B0005046FCF779FD6806050E1548641CA4B249
:1044C0004088A04219D9A4EB0B00B84209D10AF1E7
:1044D00001001FFA80FA0E485C46018851450CD94C
:1044E00006E008F1010000F0FF08B8F1080FCDD395
:1044F000761CF6B200988642BAD3BDE8F88F000069
:104500005684000828000020F2790008667E000822
:10451000CC0100202DE9F84F044600F0FF081019E7
:104520000D46DDE90A761FFA80FA58191FFA80F95C
:104530004FF0000B11E0544502D3E819444685B210
:104540004D450FD23B4629462046CDF800B0FFF737
:104550007BFF04EB570084B2761C3278A2F1200076
:104560005E28E8D9BDE8F88F2DE9FF4F81B080467D
:10457000DDF83CA00E984FF000091F4693464C46CC
:104580000AF0010546082BE0381B401EC1B20A2084
:10459000FFF7E8FCBBFBF0F00A21B0FBF1F201FBF6
:1045A0001200B9F1000F05D1791E8C4202DA48B130
:1045B0004FF001093030C2B206FB048080B2009592
:1045C0000E9B08E05FEA0A6006FB04800E9B80B247
:1045D00000950AD530220299FFF736FF641CE4B239
:1045E000BC42D1D305B0BDE8F08F2022F3E7000034
:1045F000024803490089088070470000CC01002070
:10460000FE07006C024A1080901C01807047000079
:10461000FE07006C38B50121482000F047F920243E
:10462000ADF8004010208DF8030003200B4D8DF8ED
:10463000020069462846FCF739FA20212846FCF793
:10464000BBFAADF80040064C69462046FCF72EFA4E
:1046500020212046FCF7B0FA38BD0000000C0140D4
:1046600000180140FEE7704730B50F23C27801788B
:104670000125F2B1144A126801F1E02102F4E0626E
:10468000C2F5E062120AC2F10404D3404278A240AB
:1046900084781C401443220181F80024007800F043
:1046A0001F018D404009800000F1E020C0F800515A
:1046B00030BD01F01F0085404809800000F1E02076
:1046C000C0F8805130BD00000CED00E00249084305
:1046D00002490860704700000000FA050CED00E098
:1046E000F8B50024012140F23D1000F0DFF84FF44E
:1046F0008075ADF8005048268DF803600320354FD3
:104700008DF8020069463846FCF7D0F9294638464C
:10471000FCF752FA1820ADF800002F4F10258DF845
:10472000035069463846FCF7C1F918213846FCF7B2
:1047300043FAFF20ADF800008DF803606946274872
:10474000FCF7B4F94020ADF80000254E8DF8035079
:1047500069463046FCF7AAF940213046FCF72CFAAE
:104760004FF44046ADF800608DF803501D4D69468A
:104770002846FCF79BF931462846FCF71DFA012133
:104780001948FCF7E1F900F093F98021122000F0BC
:10479000C5FA08B10120F8BD322001F0F7F80B206E
:1047A00000F018FA732804D10A2000F013FA7628D2
:1047B00001D00220F8BD0D4D05EB4400417815F8FD
:1047C000140000F0ABFA641CA4B2A82CF4D30020AF
:1047D000F8BD000000080140000C0140001001403D
:1047E000001401400020014000023000B291000896
:1047F0002DE9F041054600EB420086B201EB430093
:1048000084B20F46B4F5447F02D9A4F54474A4B22F
:10481000032000F0DFF906F00302294600F0F00063
:1048200062F39F010143032000F078FAC5F387018A
:10483000192000F073FAC6F387011A2000F06EFA0F
:10484000322000F0C7F9C7F3C701172000F066FA5D
:10485000C4F3C701BDE8F041182000F05FBA0000C2
:1048600010B5044C04F1040C8CE80F000020E06249
:10487000206310BD18CA002070470000044A0029B8
:10488000516901D0014300E081435161704700004C
:1048900000100240044A0029D16901D0014300E020
:1048A0008143D1617047000000100240044A002992
:1048B000916901D0014300E081439161704700009C
:1048C0000010024030B5204A5168204B11F00C0115
:1048D00003D0042901D0082901D0036012E05168F7
:1048E000536801F470114FF0020413F4803F04EB9D
:1048F000914102D053689B0301D5154B00E0134B47
:104900005943016051680F2303EA1111114B5C5C9C
:104910000168E14041605468072505EA14241C5DE4
:1049200021FA04F48460546805EAD4241B5DD9405C
:10493000C1605268032303EA9232064B1B1F9A5C44
:10494000B1FBF2F1016130BD0010024000127A00AB
:1049500000093D00740000202DE9F0474E4D6878B5
:1049600000287DD04D490B22A1F13000FBF706FE57
:104970000020687049480178552978D1474C407823
:10498000303CDFF81C91DFF81CA16FF00E065128B7
:1049900033D052286DD0532869D1608800B202F01C
:1049A00092FB3746324602F0DEFFDFF8FC80002241
:1049B000434602F0B3FB02F01FF904F10C0630602D
:1049C000A08800B202F07FFB3A4602F0CCFF002242
:1049D000434602F0A3FB02F00FF97060E08800B2DA
:1049E00002F071FB3A4602F0BEFF0022434602F09D
:1049F00095FB02F001F9B06028E0608800B202F097
:104A000062FB324602F0AFFF042202F0ACFF02F07C
:104A1000F3F8224F0C3F3860A08800B202F053FB3D
:104A2000324602F0A0FF042202F09DFF02F0E4F8FB
:104A30007860E08800B202F046FB324602F093FF55
:104A4000042202F090FF02F0D7F8B860208900B28B
:104A500002F039FB00224B4602F0B0F9002200E0E0
:104A600005E0534602F0FAF802F0C6F86860BDE8C7
:104A7000F087608800B202F026FB3746324602F02B
:104A800072FFDFF828800022434602F047FB02F065
:104A9000B3F8024E183E92E7340000200CCA002002
:104AA00000407540002042400080664000409F402A
:104AB00038B501214FF49070FFF7F8FE4FF4005520
:104AC000ADF8005048208DF803000320114C8DF8FC
:104AD000020069462046FBF7E9FF29462046FCF71D
:104AE0006BF80820ADF8000010200B4D8DF8030086
:104AF00069462846FBF7DAFF08212846FCF75CF8F0
:104B0000606820F470006060606840F4401060608D
:104B100038BD0000002001400014014070B5322073
:104B200000F04EFF0C4D0120C5F8B4010B4EC6F845
:104B30008C01322005F5DA7506F5C67600F040FFE7
:104B400000243460322000F03BFF2C60BDE8704050
:104B5000322000F035BF00000000244200802242D5
:104B60002DE9F047184F0024786820F47000786031
:104B7000786840F400007860DFF85090144E082503
:104B80004FF00108A246322000F01AFFC6F88C81CF
:104B90006006040ED9F8340108B1641CE4B2322076
:104BA00000F00EFFC6F88CA16D1E15F0FF05EAD1CE
:104BB000786820F470007860786840F4401078607D
:104BC0002046BDE8F087000000200140000024429C
:104BD0000080224210B5044600F022F8422000F086
:104BE00055F8642000F0ECFE204600F04FF86420F9
:104BF00000F0E6FE00F02EF8642000F0E1FE00F088
:104C00000FF8432000F042F8642000F0D9FEFFF7CF
:104C1000A7FF0446FFF782FF00F01CF8204610BDF6
:104C200070B50A4E0120C6F8B401094DC5F88C01D3
:104C3000322005F5C67506F5DA7600F0C1FE0024CF
:104C40003460322000F0BCFE2C6070BD00002442B5
:104C50000080224270B50B4C0020C4F8B401322011
:104C600004F5DA7400F0ACFE07480125C0F88C5159
:104C7000322000F0A5FE2560BDE87040322000F033
:104C80009FBE000000002442008022422DE9F04730
:104C900000241F4E1F4F0546A0464FF0010928066D
:104CA00001D5484600E04046C6F8B4016806050E46
:104CB000322000F085FEC7F88C91322000F080FE93
:104CC000C7F88C81641CE4B2082CE8D3124C6068ED
:104CD00020F470006060606840F400006060322082
:104CE00000F06EFEC7F88C91322000F069FED6F815
:104CF000340100B10120C7F88C81616821F4700192
:104D00006160616841F440116160BDE8F0870000B6
:104D100000002442008022420020014070B50D4670
:104D200006460024FFF77CFF4220FFF7AFFF00B1EB
:104D30000124642000F044FE3046FFF7A7FF00B1D5
:104D40000124642000F03CFE2846FFF79FFF00B1DD
:104D50000124FFF77FFF204670BD70470CB500228D
:104D6000264800920192016841F4803101604FF4BD
:104D7000A063016801F4003101910099491C009180
:104D8000019911B900999942F3D10168890333D58A
:104D9000012101911A490A6842F010020A600A686A
:104DA00022F003020A600A6842F002020A604168C7
:104DB000416041684160416841F4806141604168FF
:104DC00021F47C114160416841F4E81141600168BF
:104DD00041F08071016001688901FCD5416821F0D2
:104DE00003014160416841F0020141604168C1F343
:104DF00081010229FAD10CBD01920CBD00100240C4
:104E0000002002404FF0E0210428086903D020F080
:104E100004000861704740F00400FAE770470000A2
:104E20000F4810B5016841F00101016041680D4A69
:104E30001140416001680C4A11400160016821F491
:104E400080210160416821F4FE0141604FF41F019F
:104E50008160FFF783FF05494FF00060086010BDD7
:104E6000001002400000FFF8FFFFF6FE08ED00E032
:104E700010B5084C0121204600F0AFF9002807D0FA
:104E80000121204600F093F903480178491C017084
:104E900010BD0000000400402600002030B50D4683
:104EA000044689B001210220FFF7F4FC012109200A
:104EB000FFF7FCFC01212148FBF746FE2222ADF85A
:104EC0001C2018228DF81F2003208DF81E0007A932
:104ED0001B48FBF7EBFDADF81050ADF81440102067
:104EE000184D0024ADF81200ADF8164004A928466C
:104EF00000F018FA6020ADF800000120ADF80200C3
:104F0000ADF80640ADF808406946284600F07AF949
:104F10006946284600F0C0F90821284600F0B2F999
:104F20000821284600F0EAF90121284600F032F96C
:104F30000121284600F03EF909B030BD00081A00F2
:104F4000000C01400004004010B50C4C012120462B
:104F500000F043F901280AD1094801698847002176
:104F6000204600F0DCF96421204600F0D1F920460B
:104F7000BDE81040012100F01AB90000000800400F
:104F8000D80000202DE9FC5FDFF86491012148463C
:104F900000F023F9002878D000F02CFC4FF47A714F
:104FA000B0FBF1F297B2B0FBF1F201FB1206FFF792
:104FB000D3FC012EEFD0641CA0B20C21B0FBF1F2A7
:104FC00001FB120038B9304600F034FD8346384604
:104FD00000F01CFD82463246394646A0FBF746F9F2
:104FE0004748027812B380241025CDE900540A21E5
:104FF00003230846FFF7B8FADFF80881D8F80C0059
:1050000002F0F2FACDE900540246032319210A20E6
:10501000FFF7AAFAD8F8100002F0E6FACDE900543A
:105020000246032328210A20FFF79EFA504600F08B
:1050300031FB0446384600F0EDFA214602F0ECFB65
:10504000314902F053FA0546584600F097FB0446F2
:10505000304600F053FB214602F0DEFB2B4902F004
:1050600045FADFF8AC800446414602F0D5FB02F079
:105070009FFA002800DA4042962800DC4446254882
:105080002549854202DD054603E02BE08D4200DA2A
:105090000D462248844201DD044602E08C4200DADB
:1050A0000C461F4A1F49374301D115460C461E487E
:1050B000006810F0FF4F06D11C48006810F0FF4F49
:1050C00001D115460C46204602F08EFA184C81B2EA
:1050D000204600F01FF9284602F086FA81B22046E9
:1050E00000F01AF94846BDE8FC5F012100F05FB806
:1050F000001000402825642A2A2A2564290000007F
:105100002600002018CA002000002A4400004D4458
:1051100000003444008089440000964300409244DB
:1051200000002F44008031443C000020400000205B
:10513000000400407FB50D46044601211020FFF712
:10514000A9FBADF804400020ADF80050104CADF8BC
:105150000600ADF802006946204600F0E3F801229F
:105160004121204600F045F80121204600F022F8B8
:1051700036208DF80C0001208DF80D0003218DF8EC
:105180000E108DF80F0003A8FFF76EFA7FBD000028
:10519000001000400029018802D041F0800101E0A8
:1051A00021F0800101807047C94301827047C943E3
:1051B000018270470029018802D041F0010101E01D
:1051C00021F0010101807047808C70470246002069
:1051D000128A0A4200D00120704702460020138A3A
:1051E00092890B4202EA010202D0002A00D001207B
:1051F0007047002A828901D00A4300E08A438281F5
:105200007047000070B5028C22F010020284028CFC
:105210008388048B0D8824F4E6464FF6FF7404EA75
:10522000052535430E8922F0200204EA06161643AE
:105230004A8804EA02123243104EB04202D0104EA5
:10524000B04215D122F080064A8923F4406304EA73
:105250000212324322F040068A8804EA02123243E4
:105260008E8904EA86061E43CB8904EA830333430E
:1052700083800583C9880187028470BD002C0140AA
:1052800000340140028B4FF6FF7322F4006203EA00
:10529000012111430183704770B5028C22F48052C2
:1052A0000284058C8288838B0C8823F4E6464FF6B3
:1052B000FF7303EA0424344325F400560D8903EAFE
:1052C000053535434E8803EA06362E43094DA8427C
:1052D00002D0094DA84205D122F480458A8903EA0B
:1052E00082122A4382808483C988A0F840100684F1
:1052F00070BD0000002C014000340140828B4FF64D
:10530000FF7322F4006203EA012111438183704795
:105310008185704701877047A0F8401070478184ED
:105320007047000030B502881B4C1C4DA0420DD0C8
:10533000A8420BD0B0F1804F08D0194B984205D04D
:10534000184B984202D0184B984203D122F07003B8
:105350004A881A43154B984206D0154B984203D001
:1053600022F44073CA881A4302808A8882850A8898
:105370000285A0420AD0A84208D00E4A904205D029
:105380000D4A904202D00D4A904201D1097A01861D
:105390000121818230BD0000002C01400034014019
:1053A0000004004000080040000C004000100040D5
:1053B000001400400040014000440140004801400A
:1053C0007FB50D46044601210420FFF763FAADF8CE
:1053D00004400020ADF80050104CADF80600ADF8C8
:1053E000020069462046FFF79DFF01224121204629
:1053F000FFF7FFFE1E218DF80C1003218DF80D1014
:105400008DF80E1001208DF80F0003A8FFF72CF97E
:1054100001212046FFF7CEFE7FBD000000080040BE
:1054200070B5154C40F22551204600F05FF8002879
:105430000ED0204600F0E8F8104AC1B210880304EC
:1054400006D444044FF0000306D50A2901D0138086
:1054500070BD40F400400DE00D2909D0C0F30D04EB
:10546000074D401C80B229551080C728EFD870BD69
:1054700040F48040108070BD00380140680000207A
:105480006CCA002010B5114C40F22551204600F0A6
:105490002DF8002819D0204600F0B6F80D4C0C4A23
:1054A0002178505411B9107855280ED1491CC8B232
:1054B00020700B2809D106490B2201F13000FBF7BF
:1054C0005DF8002020700120607010BD0048004091
:1054D000DCC90020340000200029818902D041F479
:1054E000005101E021F400518181704770B501F055
:1054F0001F0501260024C1F3421306FA05F2012B11
:105500000FD0022B0FD0838A4FEA1121008813425B
:1055100006FA01F600EA060001D000B10124204697
:1055200070BD8389F0E7038AEEE710B5C1F342133B
:1055300001F01F040121A140012B07D0022B07D04D
:105540001430002A026805D00A4304E00C30F8E762
:105550001030F6E78A43026010BD000030B5044603
:10556000008A85B00D464CF6FF710840E98801437A
:105570002182A0894EF6F3110840A9882A89114397
:105580006A8902431143A181A08A4FF6FF41084076
:10559000A9890143A1826846FFF794F9194884421A
:1055A00001D1039800E00298A189090400EBC00131
:1055B00001EB0010296801D5490000E08900B0FB2B
:1055C000F1F06422B0FBF2F109010B096FF018054C
:1055D0006B4300EB8300A3891D044FF0320306D513
:1055E00003EBC000B0FBF2F000F0070005E003EBB6
:1055F0000010B0FBF2F000F00F000843208105B06E
:1056000030BD0000003801408088C0F308007047BA
:10561000FEE700002DE9F041184F194E194D02F038
:105620001BF8194C216802F0F7F880460146E06843
:1056300001F05CFF1549E060884202DC14498842B1
:1056400000D9E1604946404602F0E6F80146A06014
:10565000284602F015F805463046E16802F010F8D9
:1056600004463946404602F00BF8214601F03EFF61
:105670002946BDE8F04101F039BF0000000020419B
:105680000AD7233DCDCCCC3E3C00002000803B45DA
:1056900000803BC52DE9F0410025154E2C46154FE5
:1056A00001F0C2FF0146284602F0B6F8124D8046CE
:1056B0000146E86901F01AFFE8610546494640469F
:1056C00002F0AAF80146384601F0DAFF07462946FB
:1056D000204601F0D5FF04463146404601F0D0FF98
:1056E000214601F003FF3946BDE8F04101F0FEBE5E
:1056F0000000C843000070413C0000202DE9F0414B
:10570000184F194E194D01F0A7FF194C616802F0AE
:1057100083F880460146606901F0E8FE1549606142
:10572000884202DC1449884200D9616149464046FA
:1057300002F072F801462061284601F0A1FF0546FB
:105740003046616901F09CFF04463946404601F04D
:1057500097FF214601F0CAFE2946BDE8F04101F05D
:10576000C5BE0000000020410AD7233DCDCCCC3E71
:105770003C00002000803B4500803BC52DE9F04106
:105780000025154E2C46154F01F04EFF01462846C8
:1057900002F042F8124D80460146686A01F0A6FE0A
:1057A000686205464946404602F036F801463846EA
:1057B00001F066FF07462946204601F061FF0446D6
:1057C0003146404601F05CFF214601F08FFE39462C
:1057D000BDE8F04101F08ABE0000C84300007041FE
:1057E0003C00002030380A2801D2012070470020F8
:1057F000704770472DE9F05F4E49097800297DD048
:105800000420FEF7EBFB4C494FF4A0738888A0F509
:10581000C852633A07D0A0F5AA42103A0DD012F54B
:1058200000720AD019E008884988F038A1F5A07103
:1058300001EBD171C1F34F0108E008884988A0F558
:10584000A070F03901EBD171C1F34F0100EBD070C2
:10585000C0F34F00F022FEF739FDFEF7C9FE374CCA
:105860000020C4F8B801364B10221A60181F0260DD
:105870001A600121C4F8B811026000242546DFF83F
:10588000C4E0DFF8C4A02E4621469B468146002096
:10589000CBF80020DEF80830C9F80020DBB24FF664
:1058A000FF7C0CEA0323CBF80020DEF80870C9F86F
:1058B0000020FFB21F43B7F5004F32D29F2830D0EF
:1058C0009E282ED07B1E47F6FE7C63450CD2002717
:1058D00000EB8008641C73180AEB881C9EB22B181E
:1058E0002CF81170A4B29DB2184B1F80401CC0B29E
:1058F000A028CDD3491CC9B2A02900E00FE0C6D32F
:105900000C4900200870FEF769FBB6FBF4F0B5FB0C
:10591000F4F100EB4002C2EBC01001EBC000BDE8A7
:10592000F09F674600EB80080AEB881C01232CF8E7
:105930001130D9E72C000020CC01002000002442C7
:10594000140C014000100140DA0100200008006C36
:1059500010B56FF00400FFF755FA094809490068CF
:10596000B0FBF1F00849C0B200EB40020870C2EB96
:10597000C0104FF6FF7202EAC000488010BD000060
:105980000000002000127A00640000200B494988C2
:1059900048434FF0E021486100238B61086940F0E3
:1059A000010008610869C20701D0C003FAD508697F
:1059B00020F0010008618B61704700006400002046
:1059C0000B49097848434FF0E021486100238B617F
:1059D000086940F0010008610869C20701D0C003EE
:1059E000FAD5086920F0010008618B61704700005A
:1059F0006400002004490A885206FCD5024AC1B25C
:105A0000121D1180704700000038014070B5064E2D
:105A100005460024328822B1AC1A214603A0FAF7C9
:105A200025FC3580204670BD2E00002028567825A4
:105A300064290A0070B5064E05460024728822B11A
:105A4000AC1A214603A0FAF711FC7580204670BD00
:105A50002E00002028567925642C290A0000000019
:105A60001CB5FFF775FF4FF4A060FEF72FFE4FF453
:105A7000E13000F0BBF83F48416848208847FEF716
:105A8000C9FDFBF765FBFBF79AF83B4B3B4A3C49EA
:105A90003C48FEF7E5FE3C494FF47840102508806D
:105AA0003AA0CDE900502B46C82246211E20FEF721
:105AB00031FD39A0CDE900501023C8225A211E2003
:105AC000FEF728FD38A0CDE900501023C8226E2132
:105AD0001E20FEF71FFD37A0CDE900501023C8227D
